:020000040800F2
:1000000040060020D5000008BD1200082511000898
:1000100000000000000000000000000000000000E0
:1000200000000000000000000000000007130008AE
:10003000000000000000000005130008091300087C
:10004000E700000800000000E7000008E7000008E3
:10005000E7000008E7000008E7000008E7000008E4
:1000600000000000E7000008E7000008E7000008C3
:10007000E7000008E7000008E700000800000000B3
:10008000E7000008E7000008E7000008D1130008B7
:10009000E7000008E7000008E7000008E7000008A4
:1000A000E7000008E7000008E7000008E700000894
:1000B000E7000008E700000800000000E700000873
:1000C0000348854600F046F900480047F919000842
:1000D000400600200448804704480047FEE7FEE74A
:1000E000FEE7FEE7FEE7FEE76D130008C10000082B
:1000F00030B50B46014600202022012409E00D46C0
:10010000D5409D4205D31D469540491B2546954047
:1001100040191546521E002DF1DC30BDD2B201E06F
:100120000270401C491EFBD270470022F6E710B552
:1001300013460A4604461946FFF7F0FF204610BD55
:1001400010B5002200E0521C835C8C5CA34201D1FC
:10015000002BF8D1D8B2E1B2401A10BDF8B5024672
:100160004A40D40F42004B0052085B089A4202D228
:100170000246084611464A0023D0C30D4A00DDB2AC
:10018000120EAD1A202D35DA49020126490AF6056C
:100190008A19002C00D0524220214F1B1146B94031
:1001A0002A411018C20D9A4221D0002C17D0012DDF
:1001B00008DCDA05801AD20F8019D207DBB200F012
:1001C0008FF8F8BDDA05801A012340001B06C0181D
:1001D00080185A428018CA0F1043490007E04908A6
:1001E000C2071143DA05801A80194008801800F010
:1001F0006FF8F8BD61000122511A001BF7E70122D8
:10020000D2075140AAE70122D2075040A6E7024692
:1002100070B54A40D30FDB0740002DD04A002AD0EA
:10022000010E140E000212020919400A520A841823
:10023000E50104465443000A120A2E045043A4194F
:100240004219200CC543AA18120C0125AD03521CFB
:10025000521912047F39240400D0521C104301D4D7
:100260004000491EC2B20C06C0092018401C4008BC
:10027000802A02D003E0002070BD40084000002921
:1002800000DA0020184370BDC217C10F504010B5EE
:100290004018CA079623002100F022F810BDC20FB3
:1002A000410040020123400ADB05D207090EC018B5
:1002B0007F2901DA00207047962903DC9623591A1A
:1002C000C84001E096398840002AF4D04042704787
:1002D000002904DA401C490001D140084000704761
:1002E00070B40024050C05D11024000402D10029AB
:1002F00021D01124050E01D100020834050F01D1CF
:100300000001241D850F01D18000A41C002801DB01
:100310004000641C002908D020252E1B0D46F54006
:10032000A14000D001212943084301061B1B000AFC
:10033000DB1D02D5002070BC7047DB051818801843
:100340000029F8DA401C4900F5D170BC4008400093
:1003500070470000064C0125064E05E0E36807CC17
:100360002B430C3C98471034B442F7D3FFF7ACFE54
:100370008C1E0008AC1E000831B500F0BBF8009CD4
:100380000546601C00D0641C00F0B4F8401BA0427D
:10039000FAD338BDF8B500238DE001249C40A44673
:1003A00022407DD04C68022C01D0122C0CD1DC08EC
:1003B000A40027183C6A5D07ED0E0F26AE40B4433B
:1003C0000E69AE4026433E6205685E000324B440D9
:1003D0000F79A543BF07BF0FB7402F4307604D6894
:1003E000012D05D0022D03D0112D01D0122D0ED1DB
:1003F0008568CF68A543B7402F4387604768654647
:10040000AF430D79ED06ED0F9D403D434560C56856
:10041000A5438C68B4402C43C4604C68E40049D5C3
:10042000284CA56901263543A561A4699D0834407F
:100430000094254CAD002F19BC689D072E0F0F2589
:10044000B540AC430925ED06A84201D100250FE0D7
:100450001E4DA84201D101250AE01D4DA84201D13F
:10046000022505E01B4DA84201D1032500E005252A
:10047000B5402543BD60184C25684E689543F6038A
:1004800000D51543256065684E689543B60300D5D1
:1004900015436560A5684E689543F60202D500E0F5
:1004A00008E01543A560E5684E689543B60200D59F
:1004B0001543E5605B1C0A681446DC4000D06CE71D
:1004C000F8BD000000100240000001400004004898
:1004D00000080048000C0048000401400069084082
:1004E00000D001207047002A01D0816170478162ED
:1004F0007047000001480068704700003400002089
:1005000002480168491C0160704700003400002067
:1005100010B506480168102211430160002000F068
:1005200007F800F017F8002010BD0000002002407E
:1005300010B5044600F042F97D21C900FFF7D8FD4F
:1005400000F038FB00222146501E00F021F8002068
:1005500010BD000008B5084881690122114381617E
:10056000816911400091C26901040A43C261C069F6
:100570000840009008BD000000100240C106C90EEE
:1005800001208840014908607047000000E100E058
:1005900010B500F095FE10BDF8B505460068394C61
:1005A000C00352D5E0690026C00007D4E1692004E9
:1005B0000143E161E169014001260091324801688F
:1005C000C90510D40168821511430160FFF792FF3D
:1005D000074604E0FFF78EFFC01B642824D82A4892
:1005E0000068C005F6D5206A03273F02384020D0B6
:1005F0006968394081421CD0206A226AB8430121CF
:1006000009040A432262226A8A4322622062C007E6
:100610000FD0FFF76FFF009008E0FFF76BFF009926
:10062000411A1A48814201D90320F8BD206A800787
:10063000F3D5206A6968B84308432062002E04D0CD
:10064000E169012000078143E1612878C00705D0F6
:10065000206BA96880088000084320632878800602
:1006600005D5206B10218843E9680843206328687A
:10067000800305D5206B80218843296908432063C6
:100680000020F8BD001002400070004088130000F8
:10069000F8B5054644480E460068C007C00FB04292
:1006A0000AD24148016849084900314301600068A5
:1006B000C007C00FB0425CD128783C4C800705D5FC
:1006C0006068F0218843A968084360602878C00703
:1006D0003FD06868012813D02168022813D0890709
:1006E000002946DA61688908890001436160FFF7E3
:1006F00001FF6968074601290DD0022917D024E0BF
:1007000021688903ECE78901EAE7FFF7F3FEC11BE3
:100710002748814217D860680007800F0128F4D16C
:1007200017E0FFF7E7FEC11B214881420BD8606844
:100730000007800F0228F4D10BE0FFF7DBFEC11B9E
:100740001B48814201D90320F8BD60680007800F73
:10075000F3D115480168C907C90FB1420BD9016827
:1007600049084900314301600068C007C00FB0422A
:1007700001D00120F8BD2878400706D56068072120
:1007800009028843E9680843606000F02DF8616859
:10079000084A0906090F515CC84007490860002053
:1007A000FFF7C6FE0020F8BD002002400010024006
:1007B00088130000731E00083800002001480068FC
:1007C0007047000038000020044805490068496867
:1007D000044A4905490F515CC84070473800002061
:1007E00000100240831E000810B511A30FCB88B083
:1007F0006C460FC412A30FCB0FC415494A680C20D6
:10080000134603401348042B0FD0082B0DD193023D
:100810001B0F6C46E45CC96A04AB0907090FD203DD
:10082000595C920FFFF764FC604308B010BD0000F4
:1008300002030405060708090A0B0C0D0E0F101021
:100840000102030405060708090A0B0C0D0E0F1020
:100850000010024000127A00FEB504460078D24D26
:10086000C00749D068680007800F012820D0686859
:100870000007800F022804D16868C003800F022897
:1008800016D0012062680004012A18D08100002AD5
:1008900001D0052A17D02A6882432A602868884335
:1008A0002860606800281BD0FFF724FE064613E08E
:1008B0002868800320D56068002876D01CE029686D
:1008C00001432960EDE72A680A432A60F7E7FFF74A
:1008D00011FE801B642869D828688003F7D50BE0D7
:1008E000FFF708FE064604E0FFF704FE801B6428BD
:1008F000F1D828688003F7D42078012680070028E3
:100900003DDA68680007800F13D068680007800F21
:10091000022804D16868C003800F012809D0E0686C
:10092000002828681CD030432860FFF7E3FD074605
:100930000BE0286880070BD5E068012835D107E077
:10094000FFF7D8FDC01B0228C5D828688007F7D557
:100950002868F82188432169C900084328600EE00F
:10096000400840002860FFF7C5FD074604E0FFF798
:10097000C1FDC01B0228AED828688007F7D42078B4
:10098000000723D5E0690028686A10D03043686208
:10099000FFF7B0FD074604E0FFF7ACFDC01B0228DF
:1009A00099D8686A8007F7D510E0FAE0A4E040081B
:1009B00040006862FFF79EFD074604E0FFF79AFDDE
:1009C000C01B022887D8686A8007F7D420780427DC
:1009D0004007002860DA00200190E869C00008D4D0
:1009E000E969B8060143E961E96901400120009124
:1009F00001906E480168C90511D401688215114340
:100A00000160FFF777FD009005E0FFF773FD0099A7
:100A1000401A642870D865480068C005F5D5A068FC
:100A200001280AD0002801D0052810D0286A4008E3
:100A300040002862286AB84301E0286A30432862EF
:100A4000A068002812D0FFF755FD00900AE0286A40
:100A500038432862F1E7FFF74DFD0099411A5448E9
:100A6000814249D8286A8007F5D50DE0FFF742FD9D
:100A7000009006E0FFF73EFD0099411A4C48814284
:100A80003AD8286A8007F5D40198002804D0E9698B
:100A9000012000078143E9612078C00635D56069EF
:100AA00001280CD0401D686B23D038436863686B05
:100AB000400840006863FFF71DFD064622E0686BB2
:100AC00038436863686B30436863FFF713FD06467D
:100AD00004E0FFF70FFD801B02285BD8686B8007DE
:100AE000F7D5686BF8218843A169C900084368639A
:100AF0000BE0B8436863F4E74CE0FFF7FBFC801BB6
:100B0000022847D8686B8007F7D4206A002846D0AF
:100B100069680907890F022943D001263606022891
:100B2000286805D0B0432860FFF7E4FC044633E0B2
:100B3000B0432860FFF7DEFC074604E0FFF7DAFC6D
:100B4000C01B022826D828688001F7D4E86AE16A29
:100B5000000900010843E862616AA06A0843696805
:100B60007B22D203914308436860286830432860A1
:100B7000FFF7C0FC044604E0FFF7BCFC001B0228A2
:100B800008D828688001F7D509E0FFF7B3FC001BFF
:100B9000022801D90320FEBD28688001F5D4002079
:100BA000FEBD0120FEBD00000010024000700040AC
:100BB00088130000094910B5401E884201D9012060
:100BC00010BD074C60610321081F00F079FB002075
:100BD000A06107202061002010BD0000FFFFFF0082
:100BE00000E000E07047704770B5040005D025466E
:100BF0002035687F002802D006E0012070BD00206B
:100C00002877204600F00AF802206877211D206826
:100C100000F04CFC01206877002070BD08B5134A35
:100C20000168134891420DD1C26981150A43C2611E
:100C3000C06900220840009011461320FFF7A8FC6D
:100C4000132010E00B4A91420FD18269012149041F
:100C50000A438261806900220840009011461520F5
:100C6000FFF796FC1520FFF789FC08BD0020004027
:100C700000100240004401400268D36801210B4388
:100C8000D360006802680A43026000207047704722
:100C900070B50446006801690025C9438907002929
:100CA00015DBC168C943890711D4E91E0161012020
:100CB0002077206880698007204602D0FFF7E7FF91
:100CC00004E000F096F8204600F094F825772068BC
:100CD0000169C943490717D4C168C943490713D4F7
:100CE0000421C943016102202077206880698005C2
:100CF000800F204602D0FFF7CAFF04E000F079F829
:100D0000204600F077F8257720680169C943090774
:100D100016D4C168C943090712D40821C943016127
:100D2000042020772068C0698007204602D0FFF7A2
:100D3000AEFF04E000F05DF8204600F05BF8257798
:100D400020680169C943C90617D4C168C943C906E7
:100D500013D41021C9430161082020772068C0699D
:100D60008005800F204602D0FFF791FF04E000F0DD
:100D700040F8204600F03EF8257720680169C94315
:100D8000C90708D1C168C943C90704D1891E0161D7
:100D9000204600F030F820680169C943090609D4EB
:100DA000C168C943090605D48021C94301612046B1
:100DB000FFF718FF20680169C943490609D4C168D3
:100DC000C943490605D44021C9430161204600F0CA
:100DD00013F820680169C943890609D4C168C94369
:100DE000890605D42021C94301612046FFF7FBFE97
:100DF00070BD704770477047704770B5040005D0EC
:100E000025466035687A002802D006E0012070BDD2
:100E100000202872204600F027F8242068722068FD
:100E20000168490849000160204600F0F1FB0128F3
:100E3000EDD0606A002802D0204600F07BFB2068DD
:100E400041680122D20291434160206881680822F2
:100E500091438160206801680122114301602046AE
:100E600000F0CDFB70BD0000F0B587B00446142142
:100E70006846FFF75AF9334F0121266800223248AD
:100E80004904022303240125BE420ED18769CE10F6
:100E90003743876187693740059746690E43466146
:100EA00040690840059060020FE0284FBE4217D10C
:100EB000C6690E43C661C6690E40059646690E4373
:100EC00046614069084005900C2000900920694661
:100ED0000193C00602AE34C6FFF75CFA07B0F0BD5E
:100EE0001B4F0121C904BE4212D1C7694E103743BE
:100EF000C761C7693740059746690E434661406937
:100F00000193084005903020009069461148E1E7C0
:100F1000114DAE42E2D1C5690D43C561C5690D40B1
:100F2000059545690D434561406902920840059069
:100F300003208002009069460394019304920548BF
:100F4000CAE70000003801400010024000440040A1
:100F50000048004000080048004C0040FFB507462C
:100F600004466037B87A83B00E46202871D1002E2F
:100F70000CD00598002809D00120A1680003814207
:100F800007D12069002804D1F00702D0012007B062
:100F9000F0BD387A01285CD0012038720020E0666C
:100FA0002220B872FFF7A6FA029025464035059830
:100FB0002883059868830122A0681203FF219042CC
:100FC00004D12069002815D123480AE07F22002897
:100FD0000BD001210907884204D12069002807D0DD
:100FE0003F20A883A88B019023E02069002801D02E
:100FF000AA83F7E7A983F5E7688B401E6883069804
:101000000090002220212046029B00F0A3FB002834
:1010100001D00320BBE70120A1680003814202D177
:10102000206900280DD02068818C01980140317022
:10103000761C688B0028DFD12020B872002038721F
:10104000A5E72068808C019908403080B61CF0E745
:10105000FFE702209BE70000FF010000FFB5064606
:1010600004466036707A83B00D46202858D1002D92
:101070000CD00598002809D00120A1680003814206
:1010800007D12069002804D1E80702D0012007B069
:10109000F0BD307A012843D0012030720020E06694
:1010A00021207072FFF726FA0190274640370598F5
:1010B00038820598788218E0788A401E78820698EF
:1010C0000090002280212046019B00F043FB002875
:1010D00018D10120A1680003814202D120690028B3
:1010E00012D02168287808856D1C788A0028E3D101
:1010F00006980090002240212046019B00F02AFB28
:10110000002808D00320C2E728882168C005C00D48
:101110000885AD1CE9E72020707200203072B6E728
:101120000220B4E7FEE70000F0B587B0142168465E
:10113000FEF7FBFF2D4842690121C9040A434261C1
:1011400042690A400592426989100A434261426934
:101150000A400592426949000A4342614069FF25FD
:10116000084084350590002229462148FFF7BBF945
:10117000FF263436092000223146C006FFF7B3F9B6
:101180001C4F002239461C48FFF7ADF911204002E0
:10119000002400900194694602941548FFF7FAF87C
:1011A0000095012502946946114801950394FFF7C3
:1011B000F1F8092002946946C0060096019503944F
:1011C000FFF7E8F8029469460B48009701950394ED
:1011D000FFF7E0F803204003009002200290019402
:1011E00069460548FFF7D6F807B0F0BD0010024089
:1011F00000080048598000000004004810B50A4863
:10120000084901604B214902416000218160C160B1
:1012100001618161C1610C22016242614162FFF79B
:10122000ECFD10BD003801407C00002010B50A48DC
:10123000084901604B214902416000218160C16081
:1012400001618161C1610C22016242614162FFF76B
:10125000D4FD10BD00440040EC00002010B50A4849
:10126000084901604B214902416000218160C16051
:1012700001618161C1610C22016242614162FFF73B
:10128000BCFD10BD004800405C01002010B50A48BC
:10129000084901604B214902416000218160C16021
:1012A00001618161C1610C22016242614162FFF70B
:1012B000A4FD10BD004C0040CC0100207047000090
:1012C0008307FF22DB0E9A408907090E9940002808
:1012D0000BDA0007000F0838830808489B0018182D
:1012E000C36993430B43C3617047830804489B0061
:1012F0001B181868904308431860704700ED00E021
:1013000000E400E07047704710B5FFF7F9F810BD32
:1013100070B596B030216846FEF707FF00240C94A4
:101320000D940E94142110A80F94FEF7FEFE1020C9
:1013300004900225C0020990012600954001039601
:101340000A9008950B946846FFF786FA07200C90E0
:101350000E9401210D950F940CA8FFF799F910A890
:1013600010961294FFF718F916B070BD1548016871
:101370000122114301604168134A11404160016834
:10138000124A1140016001680122920491430160F8
:1013900041683F22120491434160C16A0909090171
:1013A000C162016BFF22943291430163016B802281
:1013B00011430163416B4908490041630021816089
:1013C00070470000001002400CB8FF08FFFFF6FE57
:1013D000F8B53248FFF75CFC012149033048FFF7BC
:1013E0007DF800252F4C0028606807D0012804D123
:1013F0002069616988424CDD6560F8BD0028FCD138
:10140000A068616988423FDD207809270126FF0630
:1014100000280AD02570002000F0D4FA00222021F4
:101420003846FFF760F86660F8BD26700920012293
:101430002021C006FFF757F8002000F0A9FA1A4F44
:10144000012000F0BFFAE0686169C91988420EDD29
:10145000E560002000F0B6FA092000222021C00635
:10146000FFF741F8012000F093FA2570DBE7012136
:1014700049030B48FFF732F8002801D0E560DFE7A9
:10148000E068401CE060DBE7A068401CA0602561CC
:10149000F8BD2069401C2061A560F8BD3C0000201B
:1014A000000800481C00002050C30000F0B502688E
:1014B0001A4B1B4C984201D0A04203D17025AA437D
:1014C0004D682A43174D184E184F98420AD0A04233
:1014D00008D0174CA04205D0A84203D0B04201D09A
:1014E000B84205D11446032212029443CA6822432B
:1014F0008024A2434C69224302608A68C2620A685F
:101500008262984205D0A84203D0B04201D0B842CE
:1015100001D10969016301214161F0BD002C014045
:1015200000040040004001400044014000480140E8
:101530000020004010B5818CC90707D001684A68B7
:1015400001235B049A43836A1A434A60818C8907AA
:1015500007D501684A6801231B049A43C36A1A43EA
:101560004A60818C490707D501684A6801239B04BA
:101570009A43036B1A434A60818C090707D50168B7
:101580004A680123DB039A43436B1A434A60818C08
:10159000C90607D50268916801231B039943836B31
:1015A00019439160818C890607D501688A680123F7
:1015B0005B039A43C36B1A438A60818C490612D538
:1015C00003685A6801210905046C8A4322435A6062
:1015D000026C8A4207D10268516803235B05994374
:1015E000436C19435160818C090607D501684A682C
:1015F0000123DB04806C9A4302434A6010BD002142
:10160000C1662022603042728272017208467047C1
:10161000F8B504462369A268E5691A436369102096
:101620002B43002125681A432B680E46414F3B404F
:1016300013432B6023685A6803252D03AA43E568EA
:101640002A435A60236AA26925681A43AB680B27AC
:101650003F02BB431343AB60374A2568954210D124
:10166000364A126B9207920F14D0012A05D0022A33
:1016700005D0032A0FD102200DE004200BE0082042
:1016800009E02F4A954205D02E4A954202D02E4AB3
:10169000954200D100200122E369D203934224D174
:1016A00000280CD002280DD0042813D0082817D009
:1016B00001260A0912010807400F10432FE0FFF727
:1016C00083F809E06168214A48088018FEF710FD98
:1016D00081B2EEE7FFF788F8616840004A08F4E756
:1016E0006168012248081204EFE7002808D00228A8
:1016F00009D004280BD0082814D001263046F8BDA4
:10170000FFF762F805E06168114A48080CE0FFF74E
:101710006BF861684A088018FEF7EAFC80B221681D
:10172000C860EBE7616848088018FEF7E1FC80B20A
:10173000E860E3E7F369FFEF003801400010024082
:101740000044004000480040004C00400024F400E9
:1017500000127A00FFB581B017460E4604460A9D76
:101760001DE0681C1BD0002D05D0FEF7C3FE0499B8
:10177000401AA84213D920680168FF22A132914380
:101780000160206881684908490081602020603438
:101790006072A07200202072032005B0F0BD2068A6
:1017A000C1693046884304D00020B842D9D0002017
:1017B000F3E70120F9E730B47446641E2578641C11
:1017C000AB4200D21D46635D5B00E31830BC184796
:1017D00002E008C8121F08C1002AFAD170477047FA
:1017E000002001E001C1121F002AFBD17047000058
:1017F000F8B5FF2609270136FF0600223146384694
:10180000FEF771FE134D18E0012211462846FEF73F
:101810006AFE0024012202212846FEF764FE012010
:10182000FEF7AAFD002202212846FEF75CFE0120F9
:10183000FEF7A2FD641C192CECDB012149030648CC
:10184000FEF74CFE0028DFD0012231463846FEF775
:101850004AFEF8BD000800480004004870B50122A7
:10186000140209202146C006FEF73DFE054D002268
:1018700021462846FEF737FE002221462846FEF77D
:1018800032FE70BD0004004870B50924E406002251
:1018900001212046FEF727FE0025012202212046D5
:1018A000FEF721FE0520FEF767FD002202212046FB
:1018B000FEF719FE0520FEF75FFD6D1C322DECDBF7
:1018C0000025012202212046FEF70DFE0420FEF72E
:1018D00053FD002202212046FEF705FE0420FEF7FC
:1018E0004BFD6D1C322DECDB002501220221204630
:1018F000FEF7F9FD0320FEF73FFD002202212046FE
:10190000FEF7F1FD0320FEF737FD6D1C322DECDBF9
:101910000025012202212046FEF7E5FD0220FEF708
:101920002BFD002202212046FEF7DDFD0220FEF7FE
:1019300023FD6D1C322DECDB00257D26F6010122F6
:1019400002212046FEF7CFFD0120FEF715FD002203
:1019500002212046FEF7C7FD0120FEF70DFD6D1C9C
:10196000B542ECDB0025012202212046FEF7BBFD3B
:101970000320FEF701FD002202212046FEF7B3FD01
:101980000320FEF7F9FC6D1CC82DECDB70BD0000D8
:1019900010B50A4B002809D001280BD0022804D129
:1019A000810300220648FEF79EFD10BD0022FF21A4
:1019B000013101E0002280211846F4E700080048C8
:1019C0000004004810B50A4B002809D001280AD0AD
:1019D000022804D1810301220648FEF784FD10BDD0
:1019E0000122110201E0012280211846F5E70000E2
:1019F0000008004800040048AAB004200025179001
:101A00001990FEF785FDFFF783FCFFF78DFBFFF7CD
:101A10000DFCFFF723FCFFF739FCFFF7EFFB8649CE
:101A200086487D24E40012C0002101603C228160D0
:101A3000426001610838FFF7D7F80220FFF7C2FFC4
:101A4000FFF70CFFFFF7D4FE7D4F7C4823460A22A8
:101A50007C49B030FFF702FB7BA0006818907BA0A8
:101A600007C809910890774974480A9223460522CD
:101A70000D394030FFF7F2FA72492346082208393F
:101A80007548FFF7EBFA6F49734823460422113972
:101A90007030FFF7E3FA34211AA8FEF746FB01265F
:101AA000760331463846FEF719FD0028F9D10220A9
:101AB000FFF76EFF614823460A2227A94030FFF74F
:101AC0004DFA654823460A2227A97038FFF7C6FA5F
:101AD00061486423042218A97038FFF7BFFA09206F
:101AE00001222021C006FEF7FEFC5448FFF7C4F88F
:101AF0002846FEF7C9FB594900F0E6F8054658A00C
:101B00000FC803936B4607C35348642310226946EA
:101B10007038FFF7A3FA49482346042218A9403039
:101B2000FFF79CFA4C4864230A2208A97038FFF793
:101B300095FA34211AA8FEF7F8FA4DA107C90B90BF
:101B40004E4E45480D920C9133460A220BA970382F
:101B5000FFF784FA06E03948234632221AA94030BA
:101B6000FFF7FCF946A11AA8FEF7EAFA0028F2D11D
:101B700046A007C80E90384810920F9123460922BC
:101B80000EA97038FFF76AFA43A007C811AB07C364
:101B90003BA11AA8FEF7D4FA002811D12E482346FB
:101BA0000C2211A97038FFF759FA2846FEF76CFB92
:101BB0003C4900F089F8054619A917A800F0CEF8AD
:101BC00039A007C816921591149033460C2214A917
:101BD0002148FFF743FAFFF757FE34211AA8FEF712
:101BE000A4FA05E0234632221AA91B48FFF7B6F9EA
:101BF00030A11AA8FEF7A4FA0028F3D12DA11AA843
:101C0000FEF79EFA002800D01FE72846FEF73CFBAF
:101C10002B4900F059F805462A480FC8079304AB32
:101C200007C30D4833460F2204A97030FFF716FA98
:101C3000FFF72AFE09E70000002000403C000020DA
:101C4000000800481100002068690A0D7472616E76
:101C5000736D69740A0D00005C0100200000A04152
:101C6000425245414B61667465727370696E0A0D2C
:101C700049414D48455245310A0D0000B80B00005E
:101C80004452494C4C444F4E450A0D0049414D4881
:101C90004552450A0D00000048414E444C45525201
:101CA00045430A0D00000C434D494C4C52454144FC
:101CB000590A0D004D494C4C444F4E450A0D000049
:101CC00000008C43641E0008F3B581B00026029921
:101CD000FEF799FA1F49FEF79AFAFEF7E0FA044672
:101CE000FF21092000220131C006FEF7FCFB1A4F3C
:101CF000002C01DA012200E0002201213846FEF723
:101D0000F2FB654210E0012202213846FEF7EBFBB0
:101D10000120FEF731FB002202213846FEF7E3FBEB
:101D20000120FEF729FB761C002C01DB204600E099
:101D30002846B042E7DC7D20C000FEF71DFB0122F3
:101D400009201102C006FEF7CEFB0298FEF7A7FAA3
:101D5000FEBD00000000C84100080048F8B5064676
:101D6000006809240D46E4060300FFF724FD06067B
:101D70000407223D5B0601200860F8BD01221146E0
:101D800027462046FEF7AFFB0024012202213846F9
:101D9000FEF7A9FB0520FEF7EFFA002202213846E4
:101DA000FEF7A1FB0520FEF7E7FA641C322CECDB02
:101DB00034E00022012127462046FEF794FB002450
:101DC000012202213846FEF78EFB0520FEF7D4FAE9
:101DD000002202213846FEF786FB0520FEF7CCFAEA
:101DE000641C642CECDB19E000220121274620460C
:101DF000FEF779FB0024012202213846FEF773FB2F
:101E00000520FEF7B9FA002202213846FEF76BFBE7
:101E10000520FEF7B1FA641C322CECDB01203060A7
:101E20002860F8BD002201210D48FEF75CFB002769
:101E3000012210212046FEF756FB0520FEF79CFAF2
:101E4000002210212046FEF74EFB0520FEF794FAF3
:101E50007F1C322FECDB31462846FFF77FFFF8BDB1
:101E6000000400484C41544845474F0A0D0000000B
:101E70000000000000000000000000010203040652
:101E8000070809000000000102030400AC1E00085E
:101E9000000000203C000000D0170008E81E0008E9
:101EA0003C00002004060000E01700080128320A68
:101EB000010214641E0103280427236F0848656C7F
:101EC0006C6F2121210A0D000000000000000000BD
:101ED000000000000000000000000000640000009E
:081EE0000000000000127A006E
:04000005080000C12E
:00000001FF
