:020000040800F2
:1000000078040020D5000008790E0008850D00084E
:1000100000000000000000000000000000000000E0
:10002000000000000000000000000000C30E0008F7
:100030000000000000000000C10E0008C50E00080E
:100040000501000805010008050100080501000878
:100050000501000805010008050100080501000868
:100060000501000805010008050100080501000858
:100070000501000805010008050100080501000848
:100080000501000800000000000000000501000854
:100090000000000005010008050100080501000836
:1000A0000000000005010008050100080501000826
:1000B0000501000800000000050100080501000816
:1000C0000348854600F056F90048004769130008C8
:1000D000780400200C4880F308880C480168090E59
:1000E0000B4A914205D10B480B4901600B480C4962
:1000F00001600C4880470C480047FEE7FEE7FEE73A
:10010000FEE7FEE7FEE700007804002004000000A0
:100110001F00000018100240010000000000014014
:1001200000000000210F0008C100000830B50B4698
:10013000014600202022012409E00D46D5409D42C1
:1001400005D31D469540491B254695404019154647
:10015000521E002DF1DC30BDD2B201E00270401C15
:10016000491EFBD270470022F6E710B513460A4637
:1001700004461946FFF7F0FF204610BDF8B50246C9
:100180004A40D40F42004B0052085B089A4202D208
:100190000246084611464A0023D0C30D4A00DDB28C
:1001A000120EAD1A202D35DA49020126490AF6054C
:1001B0008A19002C00D0524220214F1B1146B94011
:1001C0002A411018C20D9A4221D0002C17D0012DBF
:1001D00008DCDA05801AD20F8019D207DBB200F0F2
:1001E0008FF8F8BDDA05801A012340001B06C018FD
:1001F00080185A428018CA0F1043490007E0490886
:10020000C2071143DA05801A80194008801800F0EF
:100210006FF8F8BD61000122511A001BF7E70122B7
:10022000D2075140AAE70122D2075040A6E7024672
:1002300070B54A40D30FDB0740002DD04A002AD0CA
:10024000010E140E000212020919400A520A841803
:10025000E50104465443000A120A2E045043A4192F
:100260004219200CC543AA18120C0125AD03521CDB
:10027000521912047F39240400D0521C104301D4B7
:100280004000491EC2B20C06C0092018401C40089C
:10029000802A02D003E0002070BD40084000002901
:1002A00000DA0020184370BDC217C10F504010B5CE
:1002B0004018CA079623002100F022F810BDC20F93
:1002C000410040020123400ADB05D207090EC01895
:1002D0007F2901DA00207047962903DC9623591AFA
:1002E000C84001E096398840002AF4D04042704767
:1002F000002904DA401C490001D140084000704741
:1003000070B40024050C05D11024000402D100298A
:1003100021D01124050E01D100020834050F01D1AE
:100320000001241D850F01D18000A41C002801DBE1
:100330004000641C002908D020252E1B0D46F540E6
:10034000A14000D001212943084301061B1B000ADC
:10035000DB1D02D5002070BC7047DB051818801823
:100360000029F8DA401C4900F5D170BC4008400073
:1003700070470000064C0125064E05E0E36807CCF7
:100380002B430C3C98471034B442F7D3FFF79CFE44
:10039000781500089815000831B500F0B5F8009CF4
:1003A0000546601C00D0641C00F0AEF8401BA04263
:1003B000FAD338BDF8B5002389E001249C402A46D1
:1003C000A44622407ED04C68022C01D0122C0CD1C5
:1003D000DC08A40027183C6A5D07ED0E0F26AE402E
:1003E000B4430E69AE4026433E6205685E000324B6
:1003F000B4400F79A543BF07BF0FB7402F43076035
:100400004D68012D05D0022D03D0112D01D0122DE4
:100410000ED18568CF68A543B7402F4387604768F2
:100420006546AF430D79ED06ED0F9D403D434560B8
:10043000C568A5438C68B4402C43C4604C68E40094
:1004400044D5264CA56901263543A561A4699D08BC
:1004500034400094224CAD002F19BC689D072E0F2C
:100460000F25B540AC430925ED06A84201D1002572
:100470000AE01C4DA84201D1012505E01A4DA84211
:1004800001D1022500E00525B5402543BD60174C8C
:1004900025684E689543F60300D5154325606568C9
:1004A0004E689543B60300D515436560A5684E6850
:1004B0009543F60200D51543A560E5684E6895435F
:1004C000B60200E002E000D51543E5605B1C0A6857
:1004D0001546DA4000D070E7F8BD00000010024079
:1004E00000000140000400480008004800040140EA
:1004F0000069084000D001207047002A01D08161C6
:100500007047816270470000014800687047000032
:100510000000002002480168491C0160704700008B
:100520000000002010B50648016810221143016048
:10053000002000F007F800F017F8002010BD0000C0
:100540000020024010B5044600F056F97D21C90094
:10055000FFF7ECFD00F096FB00222146501E00F054
:1005600017F8002010BD000008B508488169012275
:1005700011438161816911400091C26901040A43FC
:10058000C261C0690840009008BD00000010024030
:1005900010B500F073FC10BDF8B5044600683E4D80
:1005A000C00352D5E8690026C00007D4E9692804D1
:1005B0000143E961E969014001260091374801687A
:1005C000C90510D40168821511430160FFF79CFF33
:1005D000074604E0FFF798FFC01B642824D82F4883
:1005E0000068C005F6D5286A03273F02384020D0AE
:1005F0006168394081421CD0286A2A6AB8430121C7
:1006000009040A432A622A6A8A432A622862C007C6
:100610000FD0FFF779FF009008E0FFF775FF009912
:10062000411A1F48814201D90320F8BD286A80077A
:10063000F3D5286A6168B84308432862002E04D0C5
:10064000E969012000078143E9612078C00705D0EE
:10065000286BA16880088000084328632078800602
:1006600005D5286B10218843E1680843286320687A
:10067000800305D5286B802188436169084328637E
:100680002088400505D5286B40218843216908430F
:1006900028630020F8BD00000010024000700040F8
:1006A00088130000F8B505464E480E460068C0079E
:1006B000C00FB0420AD24B48016849084900314393
:1006C00001600068C007C00FB04270D12878464C66
:1006D000800705D56068F0218843A96808436060F9
:1006E0002878C00753D06868012817D0022818D08E
:1006F000032819D021688907002958DA6168890818
:10070000890001436160FFF7FFFE69680746012920
:1007100013D002291DD0032927D034E02168890392
:10072000EAE721688901E7E7616BC903E4E7FFF7BE
:10073000EBFEC11B2D48814223D860680007800F63
:100740000128F4D123E0FFF7DFFEC11B27488142D7
:1007500017D860680007800F0228F4D117E0FFF770
:10076000D3FEC11B214881420BD860680007800F6F
:100770000328F4D10BE0FFF7C7FEC11B1B488142E1
:1007800001D90320F8BD60680007800FF3D1154838
:100790000168C907C90FB1420BD90168490849006E
:1007A000314301600068C007C00FB04201D0012092
:1007B000F8BD2878400706D56068072109028843FC
:1007C000E9680843606000F02DF86168084A09068E
:1007D000090F515CC840074908600020FFF7B2FECE
:1007E0000020F8BD002002400010024088130000E5
:1007F00060150008040000200148006870470000F0
:10080000040000200448054900684968044A490575
:10081000490F515CC840704704000020001002409E
:100820007015000830B516A30FCB89B06C460FC405
:1008300017A30FCB0FC41A494A680C201446044072
:100840001848042C05D0184B082C04D00C2C00D1CF
:10085000184609B030BD9402240F6D462C5DC96A5C
:1008600004AD0907090FD203695C920F022A02D076
:10087000032A00D11846FFF759FC6043E9E700005E
:1008800002030405060708090A0B0C0D0E0F1010D1
:100890000102030405060708090A0B0C0D0E0F10D0
:1008A0000010024000127A00006CDC02FEB5044623
:1008B0000078F04EF04DC00748D068680007800F00
:1008C00001281FD068680007800F022804D16868DB
:1008D000C003800F022815D06168012919D00120BA
:1008E0008004002901D0052917D02968B143296067
:1008F000296881432960606800281BD0FFF704FE47
:10090000074613E02868800320D56068002876D069
:100910001CE0286830432860EDE72968014329601E
:10092000F7E7FFF7F1FDC01B642869D8286880034A
:10093000F7D50BE0FFF7E8FD074604E0FFF7E4FD1D
:10094000C01B6428F1D828688003F7D4207880077A
:100950003ED568680007800F14D068680007800FD4
:10096000022804D16868C003800F01280AD0E0681B
:10097000002828681DD0012108432860FFF7C4FD26
:1009800007460BE0286880070BD5E068012836D1C0
:1009900007E0FFF7B9FDC01B0228C6D8286880070A
:1009A000F7D52868F82188432169C90008432860E1
:1009B0000EE0400840002860FFF7A6FD074604E06F
:1009C000FFF7A2FDC01B0228AFD828688007F7D424
:1009D0002078000724D5E0690028686A11D0012139
:1009E00008436862FFF790FD074604E0FFF78CFDBF
:1009F000C01B022899D8686A8007F7D510E036E155
:100A0000D1E0400840006862FFF77EFD074604E041
:100A1000FFF77AFDC01B022887D8686A8007F7D4E1
:100A2000207804274007002861DA00200190E86957
:100A3000C00008D4E969B8060143E961E9690140E9
:100A40000120009101908D480168C90511D4016809
:100A5000821511430160FFF757FD009005E0FFF795
:100A600053FD0099401A642897D884480068C0054F
:100A7000F5D5A06801280AD0002801D0052811D09A
:100A8000286A400840002862286AB84302E0286AC1
:100A9000012108432862A068002812D0FFF734FD26
:100AA00000900AE0286A38432862F0E7FFF72CFD3F
:100AB0000099411A7248814275D8286A8007F5D595
:100AC0000DE0FFF721FD009006E0FFF71DFD009906
:100AD000411A6B48814266D8286A8007F5D401988C
:100AE000002804D0E969012000078143E9612078EA
:100AF000C00635D5606901280CD0401D686B24D034
:100B000038436863686B400840006863FFF7FCFC8B
:100B1000074622E0686B38436863686B012108432D
:100B20006863FFF7F1FC074604E0FFF7EDFCC01B2C
:100B3000022838D8686B8007F7D5686BF82188439E
:100B4000A169C900084368630AE0B8436863F4E731
:100B5000FFF7DAFCC01B022825D8686B8007F7D4A2
:100B60002078800637D568680007800F032813D0E7
:100B700068680007800F022804D16868C003800FEE
:100B8000032809D0206A0028686B16D030436863B8
:100B9000FFF7BAFC06460CE0686BC0031BD5206A61
:100BA000012864D117E05BE0FFF7AEFC801B022850
:100BB00056D8686BC003F7D50DE0B0436863FFF704
:100BC000A3FC064604E0FFF79FFC801B022847D8E1
:100BD000686BC003F7D4606A002846D069680907CB
:100BE000890F022943D0012636060228286805D03D
:100BF000B0432860FFF788FC044633E0B043286028
:100C0000FFF782FC074604E0FFF77EFCC01B0228CA
:100C100026D828688001F7D4E86A216B0009000112
:100C20000843E862A16AE06A084369687B22D2034C
:100C3000914308436860286830432860FFF764FCEC
:100C4000044604E0FFF760FC001B022808D828686F
:100C50008001F7D509E0FFF757FC001B022801D9F6
:100C60000320FEBD28688001F5D40020FEBD0120D0
:100C7000FEBD0000000001000010024000700040B6
:100C800088130000094910B5401E884201D901208F
:100C900010BD074C60610321081F00F0EFF8002031
:100CA000A06107202061002010BD0000FFFFFF00B1
:100CB00000E000E070B5040005D025466035687A94
:100CC000002802D006E0012070BD002028722046D6
:100CD00000F026F82420687220680168490849005D
:100CE0000160204600F0E4F90128EDD0606A002898
:100CF00002D0204600F042F9206841680922D20261
:100D000091434160206881682A2291438160206874
:100D10000168012211430160204600F095F970BD81
:100D200010B586B0044614216846FFF71CFA134933
:100D3000206888421FD112488269012189030A4331
:100D4000826182690A4005924269C9000A43426190
:100D50004069084005900320400200900220019065
:100D6000002002900320039001200490092069468E
:100D7000C006FFF71FFB06B010BD000000380140A1
:100D800000100240FEE70000F0B587B0142168466D
:100D9000FFF7E9F928484269012189050A434261C0
:100DA00042690A400592426949110A434261426917
:100DB0000A400592426949000A43426140691F4F57
:100DC00008400590002203213846FFF796FB1C4E91
:100DD000092000223146C006FFF78FFB00222821A0
:100DE0001848FFF78AFB0320002401250090029495
:100DF0006946019503943846FFF7DCFA092002940E
:100E00006946C006009601950394FFF7D3FAC42003
:100E1000009002200290092001946946C006FFF765
:100E2000C9FA282000900294694601950394054868
:100E3000FFF7C0FA07B0F0BD0010024000140048F0
:100E40003B0900000004004810B50A480849016049
:100E50004B214902416000218160C16001618161D3
:100E6000C1610C22016242614162FFF723FF10BDA4
:100E70000038014008000020704700008307FF226F
:100E8000DB0E9A408907090E994000280BDA00070B
:100E9000000F0838830808489B001818C36993435B
:100EA0000B43C3617047830804489B001B181868F4
:100EB000904308431860704700ED00E000E400E054
:100EC0007047704710B5FFF725FB10BD30B597B0E0
:100ED00034216846FFF747F900240D940E940F94CF
:100EE000182111A81094FFF73EF90220009010205D
:100EF00009940125049003956846FFF7D7FC072065
:100F00000D900E940F94002110940DA8FFF7CAFBCA
:100F100011A811951394FFF73FFB17B030BD0000E7
:100F2000134801680122114301604168114A1140D0
:100F300041600168104A1140016001680122920479
:100F40009143016041683F22120491434160C16AAC
:100F500009090901C162016BFF22D4329143016387
:100F6000416B4908490041630021816070470000DE
:100F7000001002400CB8FF08FFFFF6FE10B5818C90
:100F8000C90707D001684A6801235B049A43836A52
:100F90001A434A60818C890707D501684A68012392
:100FA0001B049A43C36A1A434A60818C490707D5D8
:100FB00001684A6801239B049A43036B1A434A6001
:100FC000818C090707D501684A680123DB039A432E
:100FD000436B1A434A60818CC90607D50268916841
:100FE00001231B039943836B19439160818C89060C
:100FF00007D501688A6801235B039A43C36B1A43D0
:101000008A60818C490612D503685A680121090556
:10101000046C8A4322435A60026C8A4207D10268F8
:10102000516803235B059943436C19435160818CDC
:10103000090607D501684A680123DB04806C9A43DE
:1010400002434A6010BD0000F8B500260446C6669B
:10105000FFF75AFA05461449206888421DD10068F6
:10106000124F000709D501212B46002249052046D1
:10107000009700F0B5F800280DD1206800684007FF
:101080000BD501212B46002289052046009700F050
:10109000A7F8002801D00320F8BD2020603460723A
:1010A000A07226720020F8BD00380140FFFFFF014A
:1010B000F8B504462369A268E5691A4363691020FC
:1010C0002B43002125681A432B680E463E4F3B40B8
:1010D00013432B6023685A6803252D03AA43E56850
:1010E0002A435A60236AA26925681A43AB680B2712
:1010F0003F02BB431343AB60344A2568954210D18D
:10110000334A126B9207920F0ED0012A05D0022AA1
:1011100005D0032A09D1022007E0042005E00820B9
:1011200003E02C4A954200D100200122E369D2035A
:10113000934224D100280CD002280DD0042813D0CB
:10114000082817D001260A0912010807400F10438A
:101150002FE0FFF757FB09E061681F4A4808801835
:10116000FEF7E4FF81B2EEE7FFF75CFB6168400049
:101170004A08F4E76168012248081204EFE70028F2
:1011800008D0022809D004280BD0082814D0012642
:101190003046F8BDFFF736FB05E061680F4A4808A6
:1011A0000CE0FFF73FFB61684A088018FEF7BEFFBE
:1011B00080B22168C860EBE7616848088018FEF7D4
:1011C000B5FF80B2E860E3E7F369FFEF0038014064
:1011D00000100240004400400024F40000127A0095
:1011E000FFB581B017460E4604460A9D1DE0681CF7
:1011F0001BD0002D05D0FFF787F90499401AA842AB
:1012000013D920680168FF22A13291430160206850
:101210008168490849008160202060346072A072B2
:1012200000202072032005B0F0BD2068C16930465F
:10123000884304D00020B842D9D00020F3E7012031
:10124000F9E702E008C8121F08C1002AFAD1704766
:101250007047002001E001C1121F002AFBD1704736
:10126000F8B501260924F602E4060022314620469C
:10127000FFF743F9F710114D14E0012239462046DB
:10128000FFF73BF9012202212846FFF736F901203A
:10129000FFF782F8002202212846FFF72EF90120ED
:1012A000FFF77AF840212046FFF722F90028E4D022
:1012B000012231462046FFF720F9F8BD001400480E
:1012C00070B5154D002220212846FFF716F9092494
:1012D000E40614E0002210212046FFF70EF9012257
:1012E00020212046FFF709F90120FFF755F80022D9
:1012F00020212046FFF701F90120FFF74DF880215A
:101300002046FFF7F5F80028E4D0012220212846E6
:10131000FFF7F3F870BD00000004004810B501228B
:1013200020210548FFF7E9F801220920D102C00673
:10133000FFF7E3F810BD000000040048092310B5D2
:10134000DB06002809D001280AD0022804D1012296
:1013500011461846FFF7D1F810BD01220821F8E721
:1013600001220221F5E700008EB000248C253421F3
:101370006846FEF7F8FEFFF7D5F8FFF7A7FDFFF781
:1013800003FDFFF761FDFFF7C9FF0926F606002000
:10139000FFF7D4FF04213046FFF7AAF8002827D032
:1013A000FFF78EFFFFF75CFF2846FEF77DFF12492F
:1013B00000F076F8FEF783FF054600F0C3F82046FC
:1013C000FEF772FF0D4900F01FF8FEF76DFF0C49A4
:1013D00000F01AF8044600F0ABF8FFF741FF0220D6
:1013E000FFF7ACFF012208210648FFF786F8CEE799
:1013F0000120FFF7A3FFCAE70000C8420000204316
:1014000000008C4200040048F3B581B00026029928
:10141000FEF709FF2049FEF70AFFFEF750FF0446DA
:10142000012109200022C902C006FFF766F8FF214A
:101430000131002C01DA012200E000220920C0065F
:10144000FFF75BF8154F654210E001220221384694
:10145000FFF753F80120FEF79FFF002202213846D4
:10146000FFF74BF80120FEF797FF761C002C01DBFD
:10147000204600E02846B042E7DC7D20C000FEF7B1
:101480008BFF01220920D102C006FFF736F802982F
:10149000FEF715FFFEBD00000000C8410014004823
:1014A000F3B5044681B0002220211E48FFF725F83D
:1014B000002620460299FEF7B6FE1B49FEF7B7FE4E
:1014C000FEF7FDFE194F040001D5012200E00022C5
:1014D00010213846FFF711F8654210E00122202163
:1014E0003846FFF70AF80120FEF756FF00222021B8
:1014F0003846FFF702F80120FEF74EFF761C002C5D
:1015000001DB204600E02846B042E7DC7D20C00039
:10151000FEF742FF012220210248FEF7EEFF02986B
:10152000FEBD0000000400480000C8410000004863
:1015300010B5002201210248FEF7DFFF10BD0000B8
:101540000014004810B5012211460448FEF7D5FFEB
:10155000FF20F530FEF720FF10BD0000001400480A
:101560000000000000000000010203040607080953
:10157000000000000102030498150008000000208C
:101580000800000042120008A01500080800002012
:1015900070040000521200080000000000127A00DF
:04000005080000C12E
:00000001FF
